:040000006F00100875
:1000040000000000000000006F0080086F008044C2
:1000140000000000000000000000000000000000DC
:1000240000000000000000000000000000000000CC
:100034006F004009000000006F00E00500000000B0
:100044006F0080056F0060056F0040056F0020059C
:100054006F0000056F00E0046F00C00400000000A2
:100064006F0060046F0040046F0020046F00000400
:100074006F00C0426F00C003000000006F00600307
:100084006F0040036F0020036F0000036F00E00265
:1000940001A001A001A001A001A001A001A001A054
:1000A40001A001A001A001A001A001A001A001A044
:1000B40001A001A001A001A001A001A0938741819A
:1000C40088438280B7F700E0DC4B898B8DCB4111EC
:1000D40022C6138441811C40850723AAF1803D2058
:1000E40011C51D281C4063E3A700212837F700E051
:1000F4005C4B3244F59B5CCB4101730020307300B0
:100104002030170500001305A577FDAA9387C18148
:1001140088433335A0008280411106C6C53F81471C
:1001240001C5938781819C43B2403E854101828011
:100134008347A500858BB1C75C41A1C7411123A2A8
:10014400A18222C426C206C609472305E5002A84E3
:100154002105AE8482977915854763F6A7001307B6
:1001640030086399E400A28522852244B240924477
:10017400410109A82305F400B240224492444101FC
:100184008280828001119387818226CA84434AC86F
:1001940006CE22CC4EC652C426873E89630DA700E4
:1001A40009EBF2406244D2444249B249224A056111
:1001B40082801843E5B775D59387418203AA070067
:1001C4008347A500AE892A8485C3230505009DE4E1
:1001D4005C4099CB630A340123A2818201469305D2
:1001E40030081305840082978327090063928702ED
:1001F4001C4023A4F18223A2418365B76387840052
:10020400228693057008268525378440C9B7BA87A6
:10021400FDD39843E31D87FE184098C3E9BF2381AB
:10022400018241119387818222C4804326C206C67B
:10023400854411E4B24022449244410182808347C0
:10024400B40081CB23159400014693052008228530
:10025400C5350040F9BF83C61182C9C683C7018270
:1002640031473386E7021387018A011185074AC89B
:10027400FD8B06CE22CC26CA4EC632970847FD1601
:1002840083440700032947002380F182A380D1829D
:1002940015E99387818280439389218201E8F240A2
:1002A4006244D2444249B2490561828083C709004D
:1002B40093F7F70F91C3A53722854A86A6858D3D0E
:1002C4000040E9BF930710086395F40085472305B0
:1002D400F5006244F240B2494A86A6854249D244B6
:1002E4000561B9B58280411106C683C7218291C3D5
:1002F4003D3795379387218283C70700B24003C5F2
:1003040011823E954101828009CD8347A5000547AE
:10031400FD1793F7F70F6366F700A305E500238144
:10032400E1828280B7170040930670052380D704CA
:10033400130780FA2380E70403C6B7041376F60D87
:10034400A385C704238007041376050225C603C6C4
:10035400A700118A0DE22380D7042380E70403C792
:10036400A700136747002385E7009307004B0100AC
:100374000100FD17EDFFB7170040930670052380B9
:10038400D704130780FA2380E7047D892394A70008
:100394000100010001000100238007042380D70429
:1003A4002380E704854637270040A303D7802380B2
:1003B40007048280137605046DDE03C6A700418A14
:1003C4000DE22380D7042380E70403C7A700136743
:1003D40007012385E7009307007D01000100FD1755
:1003E400EDFFB7170040930670052380D704130769
:1003F40080FA7D892380E704136505042394A7000C
:100404000100010001000100238007042380D704B8
:100414002380E7048D463727004041BF41118146C0
:1004240001468145014506C69122B71700401307CE
:1004340070052380E704130780FA2380E70403C7C9
:100444006704136717002383E70423800704B2407B
:100454004101828017E5FFDF1305C5E097D0FFDF78
:10046400E780A03401A0BD473305F50201007D15E6
:1004740075FD8280411122C426C206C6AA840144A5
:1004840063179400B24022449244410182800504DF
:100494001305803E4204C13F4180DDB7B7170040D9
:1004A400130700032388E702854723A6F18273001C
:1004B40020302303048095472303F4802302A4807F
:1004C400828083076480E3CE07FE23030480828056
:1004D40083076480E3CE07FE03454480828083075C
:1004E4006480E3CE07FE2302A4808280411126C4E7
:1004F4004AC24EC006C61377F50BAD47AA892E89AA
:1005040095446306F70019456D37653F8D444E8564
:100514004D37FD59FD1463983401B240A244124989
:10052400824941018280135509011375F50F453F36
:100534002209CDB7011126CC06CEB70408005137E5
:100544001545853F713769372AC6A53F32459377EC
:10055400150089EB136515001375F50FF240E2449D
:1005640005618280FD14E9FC0145CDBF397126DCAB
:100574004ADA4ED852D656D45AD25ED006DE62CE6D
:1005840066CCB7E700E07D5783AA070022C603AA1A
:10059400470023A0E71823A2E718B7170040130762
:1005A40070052380E704130780FA2380E70483C7D8
:1005B4004704930B75FFB684E20793FBFB0F854654
:1005C400AA892E8B328937240040E187015763FAC8
:1005D40076016308D5008946130700026313D5002A
:1005E4000157D98F93F7F70FB71C00402382FC04FF
:1005F40011472303E4801305F00F653D094CD13501
:1006040063697C11B70707003E9B3787070079555C
:10061400637EEB02B3079B00636AF702A947639901
:10062400F90689E48144713D26850DA0DA850945E2
:10063400753D05090345F9FFFD14050B4D3581C4CE
:100644009377FB0FFDF7FD3569FD7D55B717004026
:10065400130770052380E704130780FA2380E70457
:1006640003C74704418B2382E704F250B7E700E055
:1006740023A0571123A24711E25432445259C259BC
:10068400325AA25A125B825B724CE24C2161828024
:10069400A5476395F90685691309F00FB306990018
:1006A400B3742B01B6941349F9FFB3749900856BA5
:1006B40033796901416B9387F9FFB3F7270199E314
:1006C40063FC340193D94900C147E3E637FF99BF7E
:1006D4000569C1697D19D9B71305800D638869015E
:1006E400130500026384790113051008CA85FD3BD4
:1006F400913521DD4E99B3843441D9B7DA852D453E
:10070400F533CA94E30099F20509D933A30FA9FE7E
:10071400D5BF9387F9FF93F7F70F636CFC0803C702
:100724005C04B70708001377070219E3B7870700CB
:100734007955E37DFBF033079B00E3E9E7F0894754
:100744006390F9048980D549E38E04ECDA85094580
:10075400713B11090327C9FF91472320E480030754
:100764006480E34E07FE23033481FD17EDFBFD1483
:10077400110B81C49377FB0FE9FF6D3B71F5F1B564
:100784008547E387F9F4DA852D458D339389F4FFA2
:10079400E38A04E8353B93F7390091EB8326048020
:1007A4000327090093074900E39FE6E63E89CE84C8
:1007B400F1BFB5476396F9001305900BDD399DB57C
:1007C400B1471305B00AE38BF9FE9947639EF9021A
:1007D400DA852D45213B81448D4BA149D53963965A
:1007E4007401832704802320F9008504E39834FFEF
:1007F4008327048013172B01635507002312F90084
:1008040015B52322F90039BD9D476391F90281454D
:100814001305B004E1399D44FD595D39B3079900CE
:100824002380A700FD14E39A34FFEDBBA147639234
:10083400F90409338144630D0B0085479304400494
:100844006308FB009304000563048B019304C00355
:100854001375C507E30895DC1945A1399D31054594
:1008640089392685AD3909459D39E931E31C05DA15
:0C087400E9BBE38909DAF1547DB3000010
:100880009741002093818106177100201301817721
:1008900013054000973500209385C5F617360020D4
:1008A0001306067E63FAC5008322050023A05500C7
:1008B00011059105E3EAC5FE171500001305052291
:1008C000973500209385C57B1386818063FAC50028
:1008D0008322050023A0550011059105E3EAC5FE1A
:1008E00013858180938541A26377B500232005009D
:1008F0001105E36DB5FE9302800873A002309732B4
:100900000020938222F093E21200739052309702FB
:1009100000009382422073901234730020303D43D4
:100920002A876373C3029377F700BDEFADE5937633
:1009300006FF3D8ABA960CC34CC30CC74CC741078F
:10094000E36BD7FE11E28280B306C3408A069702AA
:10095000000096966780A6002307B700A306B7009D
:100960002306B700A305B7002305B700A304B7000B
:100970002304B700A303B7002303B700A302B70003
:100980002302B700A301B7002301B700A300B700FB
:100990002300B700828093F5F50F93968500D58DDF
:1009A00093960501D58D61B79396270097020000B5
:1009B00096968682E78086FA9680C1171D8F3E96AE
:1009C000E374C3F8A5B7371700408327870A41119E
:1009D00006C693E707202324F70A85451305001070
:1009E000F92C8D4513050020D92CB240410101A9F5
:1009F0008357050089C713070005639AE70C0111A7
:100A000022CC26CA1384C183AA8403C5918022956F
:100A100006CE4AC84EC652C481219377F50FD9CB72
:100A20001387918003450700A945AA9793F7F70F0D
:100A3000A384F1802285A29723800700A52B2A8A10
:100A400029C133098540A94517150000130505FD87
:100A5000C5269309190093950901C1812285C92EE4
:100A6000894517150000130525FCD92603C9918077
:100A7000330939414A8693051A0022851921A38436
:100A8000218103C791809307200663F5E702C545DE
:100A900017150000130585F9612E83C59180138514
:100AA000C18379268945171500001305E5F7492606
:100AB000A3840180F2406244930700052390F40070
:100AC0004249D244B249224A054505618280231039
:100AD00005000D4582808357050085C313079006E6
:100AE0006395E70283C78180850793F7F70F238417
:100AF000F180130730066374F700238401809307A5
:100B000090062310F50005458280231005000D4551
:100B1000828041111305800406C622C426C2973084
:100B20000020E78060004535BD451715000013051E
:100B300025F1FD2C9384C1802396018023980180A8
:100B40001384018126856D3522857137E5BF4111FA
:100B500022C41384C1811C4006C699E723AC0180DE
:100B6000B24022444101828097300020E78040D586
:100B7000184054431C43B6971447898F89E63E9525
:100B800023ACA180F1BF9842D0423297098F6373A2
:100B9000F700BA879446DDB783570500011126CACE
:100BA00006CE22CC4AC84EC6AA8499CF1307900518
:100BB0006396E70A93077008639AF5049387C181E7
:100BC0009C4301479DE319C323AE01809307900521
:100BD0002390F4000545F2406244D2444249B249B0
:100BE000056182800547AE87F1BFD4478C47E38B10
:100BF000C6FE19C323AEF180984769DB544763955D
:100C0000C600184798C7CDBFBA87FDB7930720081D
:100C1000E39EF5FA9389C18103A4090001495DD4DB
:100C20002285A5280DC948442286930580081D28E1
:100C300019ED232604001C44630809002324F9004D
:100C4000232404002937C9BF23AEF180D5BF9730D4
:100C50000020E78040CB22890044D1B72310050053
:100C60000D4595BF03C71182930700026305F70284
:100C700083C70182BA97B146FD8BB387D7029386AB
:100C8000018A0507B69788C72380B700D0C30145FE
:100C9000A380E182828005458280411122C406C67C
:100CA0002A8497300020E780A0C11C40B2401D8DEF
:100CB0005C402244050533B5A7004101828091477D
:100CC00063EEB70217170000130787D88A05BA9595
:100CD0009C41BA978287B717004003A7470B13457B
:100CE000F5FF698F23AAE70A03A7070B698F23A8DB
:100CF000E70A03A7070A798D23A0A70A8280B717FE
:100D0000004083A6470B1347F5FFF98E23AAD70AA5
:100D100083A6070B558D23A8A70A83A6070A758FFC
:100D200023A0E70A8280B717004003A7470B498F2B
:100D300023AAE70A03A7070B1345F5FF45BFB7171B
:100D4000004083A6470B1347F5FF758F23AAE70AD8
:100D500003A7070A598D4DB7B717004003A7470BE4
:100D6000498FEDB7B717004003D587004205418191
:100D70009377050491EB9377F5013755E801130557
:100D800005803345F50282809377050C1307000434
:100D90006397E7009377F50137459C1CCDB7216534
:100DA000130505D08280814737370040A14663C4D0
:100DB000C700328582800345B740E38EA6FE3385A7
:100DC000F5000345050085072304A740CDB7411171
:100DD00022C406C62A8479372947B307E502B24000
:100DE0008D83B3D7870222449507B3D7E7023737FD
:100DF0000040C207C1832316F7404101828071651C
:100E000041111305052006C6D937B737004013072F
:100E100070F82381E7400D47A381E74013070004E2
:100E2000A380E74005472387E740B2404101828025
:100E3000B73700402147B736004091E1828003C6B2
:100E4000B740E30CC7FE05050346F5FFFD15C205D7
:100E50002384C640C181D5B78147B736004003C758
:100E6000A6401396070141821377F70F19E33285E5
:100E7000828003C686403307F50085072300C7003C
:100E8000F9BF63F3A504B386C500637FD50293451C
:100E9000F6FF8147FD176393F50082803387F600E4
:100EA000034807003387C7002A9723000701DDB7EF
:100EB0003387F500834607003307F50085072300D5
:100EC000D700E317F6FE82808147E5BF011126CAED
:100ED0004AC806CE22CC4EC652C4AA842E8901C569
:100EE0001C4D91E3112B9C4C804499E326852923CA
:100EF00097170000938747BA631CF402C0408357DA
:100F0000C400A18BB1C71C48A1C7FD59294A1C4484
:100F100083450900FD17B1E91CC463DE070622867C
:100F2000A94526856D20FD576308F502294535A0A2
:100F300097170000938747B86314F4008044C1B743
:100F400097170000938747B3E31BF4FAC04445BFEB
:100F5000A28526852D2A55D97D55F2406244D2447A
:100F60004249B249224A056182801CC4050963D7FF
:100F70000700184C63CBE700638945011C401387C9
:100F8000170018C02380B70059B722862685812014
:100F9000E31F35F7D1B71C401387170018C0294746
:100FA0002380E70061B79737002093872714AA852D
:100FB000884329BF93F5F50F8347050091C76393D5
:100FC000B70082800505CDBF91C101458280011126
:100FD00022CC26CA4AC806CE4EC6AA842E8932849E
:100FE00001C51C4D91E30929971700009387C7AAF3
:100FF0006319F406C0401C4C1CC48357C400A18B69
:10100000C9C31C48BDCF1C4808409379F90F137918
:10101000F90F1D8D5C486346F500A2852685752C69
:101020002DE51C440505FD171CC41C401387170043
:1010300018C0238037015C486389A7008357C40028
:10104000858B81CBA9476316F900A285268571247B
:101050000DEDF24062444A85D2444249B2490561ED
:10106000828097170000938727A56314F4008044BB
:1010700059B797170000938727A0E31EF4F6C044E2
:101080009DBFA285268521203DDD7D59D9B741111F
:10109000973700209387870526C2844322C44AC01D
:1010A00006C62A892E8489C49C4C99E32685A926E4
:1010B000971700009387479E631CF402C0400317F4
:1010C000C40093170701C18393F68700B5EE93F62A
:1010D00007019DEEA5472320F90013670704231697
:1010E000E4007D55B240224492440249410182808D
:1010F000971700009387479C6314F4008044C1B79E
:101100009717000093874797E31BF4FAC04445BF45
:10111000918B8DC74C5889C9930744046384F500AB
:101120004A858123232A04028357C4002322040012
:1011300093F7B7FD2316F4001C481CC08357C40066
:1011400093E787002316F4001C4881EF8357C400FF
:101150001307002093F707286385E700A2854A85D7
:101160009D218357C40013F7170005C75C4823244B
:101170000400B307F0401CCC1C480145A5F78317B9
:10118000C40013F7070839DF93E707042316F400B8
:1011900089BF898B014791E3584818C4F1BF83D7B1
:1011A000C500011122CC26CA06CE4AC84EC613F786
:1011B0008700AA842E8471EFD841634DE000B841C6
:1011C000634AE0000145F2406244D2444249B249D8
:1011D0000561828058547DD703A904009396370196
:1011E00023A0040063DD060670488357C400918B7A
:1011F00099C75C401D8E5C5899C33C401D8E5C5461
:101200000C50814626858297FD570357C400631D05
:10121000F5009440F54763E8D706B70740208507F7
:10122000B3D7D700858BA5C31C48232204001CC05C
:101230009317370163D80700FD576314F5009C40EE
:1012400091E368C84C5823A02401ADDD9307440402
:101250006384F50026853121232A0402A5B70C50AA
:101260000146854626850297FD572A86E31FF5F637
:101270009C40A5DF75476385E70059476394E70401
:1012800023A0240181B7136707042316E4007D55CA
:101290001DBF83A90501E38709F203A905008D8B12
:1012A00023A0350133093941014791E3D84918C4D6
:1012B000E35A20F11C540C50CA864E86268582972C
:1012C0006349A0008357C40093E707042316F40082
:1012D0007DBFAA993309A940E1BF9C49B9CF01114B
:1012E00022CC06CE2A8411C51C4D81E72EC62922A8
:1012F000B245970700009387277A639BF5004C401F
:101300008397C50095C722856244F240056141BDBF
:10131000970700009387477A6394F5000C44CDB794
:101320009707000093874775E39CF5FC4C44C9BFC1
:10133000F24062440145056182800145828041118D
:1013400022C406C62A842316B5002317C50023200D
:101350000500232205002324050023220506232857
:101360000500232A0500232C05002146814513058D
:10137000C505EFF0CFDA97070000938767485CD088
:10138000970700009387C74A1CD4970700009387EC
:10139000074F5CD4970700009387C75100D01CD833
:1013A000B24022444101828097050000938525F3D5
:1013B00089AA411126C2130680069384F5FFB384DF
:1013C000C4024AC02E8922C406C693854407252E2E
:1013D0002A8401CD2320050023222501310508C4DC
:1013E000138684068145EFF08FD32285B2402244D4
:1013F00092440249410182801C4DBDE3411106C661
:1014000022C497070000938767FA1CD5970700004E
:101410009387876C9C4323240504232605042328F3
:1014200005046314F50085471CCD2A841D2848C097
:101430002285052808C422852D2048C4484001463D
:101440009145F53D08440546A545D53D4844094626
:10145000C945F53585471CCCB24022444101828004
:1014600082804111970700009387076726C2844353
:101470004AC006C69C4C22C42A8999E32685AD3F02
:10148000938484048044DC40FD1763D607009C40AD
:10149000B9CF8440C5BF0317C40039E7C1778507BA
:1014A0002322040623200400232204002324040012
:1014B0005CC423280400232A0400232C04002146B2
:1014C00081451305C405EFF08FC5232A0402232CA0
:1014D000040223240404232604042285B240224467
:1014E00092440249410182801304840671BF9145F0
:1014F0004A85C13588C051FDB1472320F900014418
:10150000E9BF797122D44AD052CC56CA5AC85EC6B5
:1015100006D626D24ECE2A8AAE8A13048504014905
:10152000054BFD5B09ECB25022544A859254025996
:10153000F249624AD24A424BB24B4561828004442E
:1015400083294400FD1963D409000040E1BF83D71B
:10155000C400637BFB008397E40063877701A68563
:101560005285829A3369A90093848406E1BF197178
:10157000A6DAAE848395E500A2DC86DE328463DCE5
:10158000050083D7C40023A0060093F707089DE356
:101590009307004015A0300836C68D2EB246E342B0
:1015A00005FE7247BD67F98F7977BA9793B7170031
:1015B0009CC2F9BF930700041CC0F6506654D65471
:1015C00001450961828083D7C500011122CC06CE76
:1015D00026CA4AC8898B2E8489CF930774041CC0FD
:1015E0001CC885475CC8F2406244D2444249056148
:1015F000828074003000AA849D3FA2452A892685F6
:10160000192201ED8317C40013F7072069FFF19B2E
:1016100093E727002316F400C9B7970700009387C4
:10162000E7D89CD48357C40008C008C893E70708CC
:101630002316F400A2475CC8B24789CF8315E400A3
:101640002685D52C01C98357C400F19B93E7170069
:101650002316F4008357C4003369F90023162401CC
:1016600059B7CDC183A7C5FF411122C406C626C202
:101670001384C5FF63D307003E94AA843926938759
:1016800001839C4399EB2322040023A881822244F6
:10169000B240268592444101D5AC637EF4001440EB
:1016A0003307D4006396E7009843DC43369718C0AD
:1016B0005CC0E1BFBA87D84319C3E37DE4FE94431D
:1016C0003386D700631F86001040B29694C33386DA
:1016D000D700E31EC7FA10435843B29694C3D8C349
:1016E0007DB76375C400B1479CC055B71040B306C1
:1016F000C4006316D70014435843B29614C058C0B0
:10170000C0C371B78280011126CA93843500F19855
:1017100006CE22CC4AC84EC6A104B14763F1F404F8
:10172000B14463E0B4042A898D24938701839843EC
:101730003A8431E0938741839C4391E781454A8510
:10174000512823AAA182A6854A856920FD596317DD
:101750003507B1472320F9004A850D2C29A0E3D293
:1017600004FCB1471CC10145F2406244D2444249E5
:10177000B249056182801C40858F63CE0702AD4669
:1017800063F6F6001CC03E9404C031A05C406312B6
:10179000870223A8F1824A85D52A1305B40093074E
:1017A000440061993307F54061D33A94898F1CC096
:1017B00065BF5CC3CDB722874040A5BF1304350089
:1017C0007198E30385FCB305A4404A852120E31DFD
:1017D00035FB41B7411122C42A842E8523A001A2E2
:1017E00006C6112CFD576317F500938701A29C4391
:1017F00091C31CC0B240224441018280411122C4E5
:101800002E848395E50006C65922634905007C486D
:10181000AA977CC8B2402244410182808357C40009
:101820007D777D17F98F2316F400EDB783D7C500B8
:10183000011122CC26CA4AC84EC606CE93F707101D
:10184000AA842E843289B68991C78395E50089469A
:10185000014631228357C4007D777D17F98F231607
:10186000F4008315E4006244F240CE864A86B24911
:1018700042492685D24405613DA8411122C42E84E7
:101880008395E50006C6E128FD570357C400631B96
:10189000F500FD77FD17F98F2316F400B2402244BE
:1018A000410182808567D98F2316F40068C8FDB78F
:1018B0008395E50005A8411122C42A842E85B285AE
:1018C000368623A001A206C6EFF0EFCDFD576317C1
:1018D000F500938701A29C4391C31CC0B2402244EF
:1018E00041018280411122C42A842E8523A001A2B5
:1018F00006C6E120FD576317F500938701A29C43BC
:1019000091C31CC0B240224441018280411122C4D3
:101910002A842E85B28523A001A206C66D20FD571C
:101920006317F500938701A29C4391C31CC0B2408A
:10193000224441018280411122C42A842E8523A0A1
:1019400001A206C67920FD576317F500938701A20F
:101950009C4391C31CC0B24022444101828041118A
:1019600022C42A842E85B285368623A001A206C60B
:10197000BD20FD576317F500938701A29C4391C3D7
:101980001CC0B24022444101828082808280411189
:1019900022C42A842E85B285368623A001A206C6DB
:1019A000A920FD576317F500938701A29C4391C3BB
:1019B0001CC0B2402244410182809307800523A0CD
:1019C000F1A27D5582809307800523A0F1A27D5569
:1019D00082809307800523A0F1A2014582809307AE
:1019E000800523A0F1A27D5582809307800523A066
:1019F000F1A27D558280938781839C4391C73E9558
:101A000023ACA1823E858280938741A23E9523AC80
:101A1000A1823E85828000005265636569766564B7
:101A20003A2000000D0A0000427566666572204F7C
:101A3000766572666C6F773A20000000456E7465BB
:101A40007220636F6D6D616E643A20008AF2FFFF51
:101A5000B2F2FFFFDAF2FFFFF2F2FFFF0CF3FFFF3B
:101A6000486172644661756C745F48616E646C6550
:101A700072000000000000000000000000000000F4
:101A80000000000000000000000000000000000056
:101A90000000000000000000000000000000000046
:101AA0000000000000000000000000000000000036
:101AB0000000000000000000000000000000000026
:101AC0000000000000000000000000000000000016
:081AD000000000008840002026
:101AD80000000000980B000000000000000000005B
:101AE800941A0000B41A0000741A000000000000E4
:101AF80000000000000000000000000000000000DE
:101B080000000000000000000000000000000000CD
:101B180000000000000000000000000000000000BD
:101B280000000000000000000000000000000000AD
:101B380000000000000000000000000088400020B5
:041B48000000000099
:00000001FF
