:040000006F00C0715C
:1000040000000000000000006F0080086F00202B3B
:1000140000000000000000000000000000000000DC
:1000240000000000000000000000000000000000CC
:100034006F004006000000006F00E00500000000B3
:100044006F0080056F0060056F0040056F0020059C
:100054006F0000056F00E0046F00C00400000000A2
:100064006F0060046F0040046F0020046F000005FF
:100074006F00E0036F00C003000000006F00600326
:100084006F0040036F0020036F0000036F00E00265
:1000940001A001A001A001A001A001A001A001A054
:1000A40001A001A001A001A001A001A001A001A044
:1000B40001A001A001A001A001A001A037370040C8
:1000C400834747409946BD8B6382D7043147638594
:1000D400E70011476399E70A757122C726C54AC329
:1000E4004EC1D2DED6DCDADAB73400401384818024
:1000F40013898181A94917EAFFDF130AAABD97EA88
:10010400FFDF938AAABD130B300685A083475740AF
:100114007300203003C78440834704001377F70F2C
:1001240093F7F70F93861700CA972384D18023800F
:10013400E70063063701834704006378FB02034743
:100144000400CA87D28656869305C006480097D015
:10015400FFDFE780200B93150501C181480097D08C
:10016400FFDFE780A0072384018083C75440858B89
:10017400D5F33A44AA441A498A49765AE65A565B50
:1001840049617300203073002030B7170040930694
:1001940070052380D704130780FA2380E70403C67D
:1001A400B7041376F60DA385C704238007041376DA
:1001B40005022DC603C6A700118A0DE22380D704C9
:1001C4002380E70403C7A700136747002385E700DC
:1001D4009307004B01000100FD17EDFFB717004026
:1001E400930670052380D704130780FA2380E7045D
:1001F4007D892394A70001000100010001002380F0
:1002040007042380D7042380E704930610053727C7
:100214000040A303D780238007048280137605045B
:100224006DDE03C6A700418A0DE22380D704238034
:10023400E70403C7A700136707012385E7009307B3
:10024400007D01000100FD17EDFFB7170040930684
:1002540070052380D704130780FA7D892380E7047F
:10026400136505042394A7000100010001000100A7
:10027400238007042380D7042380E70493063005F2
:100284003727004079B74111814601468145114520
:1002940006C6912AB7170040130770052380E704A8
:1002A400130780FA2380E70403C767041367170062
:1002B4002383E70423800704B240410182808146FE
:1002C4000146814511450522B71700401307700503
:1002D4002380E704130780FA2380E7047D572396DD
:1002E400E70203C76704136717002383E704238027
:1002F400070401A0BD473305F50201007D1575FD16
:100304008280411122C426C206C6AA84014463170E
:100314009400B240224492444101828005041305B2
:10032400803E4204C13F4180DDB72303048015476A
:100334002303E48001002302A48082808307648075
:10034400E3CE07FE23030480828083076480E3CE28
:1003540007FE03454480828083076480E3CE07FE62
:100364002302A4808280411126C44AC24EC006C61C
:100374001377F50BAD47AA892E8995446306F700D8
:1003840019456537653F8D444E854537FD59FD1444
:1003940063983401B240A2441249824941018280E7
:1003A400135509011375F50F453F2209CDB7011106
:1003B40026CC06CEB704080051371545BD37713732
:1003C40069372AC6A53F32459377150089EB136533
:1003D40015001375F50FF240E24405618280FD14A7
:1003E400E9FC0145CDBF397126DC4ADA4ED852D634
:1003F40056D45AD25ED006DE62CE66CCB7E700E0B1
:100404007D5783AA070022C603AA470023A0E71842
:1004140023A2E718B7170040130770052380E704E9
:10042400130780FA2380E70483C74704930B75FFFF
:10043400B684E20793FBFB0F8546AA892E8B32898B
:1004440037240040E187015763FA76016308D50039
:100454008946130700026313D5000157D98F93F718
:10046400F70FB71C00402382FC0411472303E480E8
:100474001305F00F5D3D094CD13563697C11B70755
:1004840007003E9B378707007955637EEB02B3076D
:100494009B00636AF702A9476399F90689E48144DA
:1004A400713D26850DA0DA850945753D050903458D
:1004B400F9FFFD14050B4D3581C49377FB0FFDF750
:1004C400FD3569FD7D55B71700401307700523807E
:1004D400E704130780FA2380E70403C74704418B2A
:1004E4002382E704F250B7E700E023A0571123A2C8
:1004F4004711E25432445259C259325AA25A125B39
:10050400825B724CE24C21618280A5476395F906B7
:1005140085691309F00FB3069900B3742B01B694DF
:100524001349F9FFB3749900856B33796901416B01
:100534009387F9FFB3F7270199E363FC340193D957
:100544004900C147E3E637FF99BF0569C1697D19D1
:10055400D9B71305800D638869011305000263840C
:10056400790113051008CA85FD3B913521DD4E99AB
:10057400B3843441D9B7DA852D45F533CA94E30001
:1005840099F20509D933A30FA9FED5BF9387F9FFC3
:1005940093F7F70F636CFC0803C75C04B707080004
:1005A4001377070219E3B78707007955E37DFBF05A
:1005B40033079B00E3E9E7F089476390F9048980F6
:1005C400D549E38E04ECDA850945713B110903270B
:1005D400C9FF91472320E48003076480E34E07FEAC
:1005E40023033481FD17EDFBFD14110B81C49377B4
:1005F400FB0FE9FF6D3B71F5F1B58547E387F9F42E
:10060400DA852D458D339389F4FFE38A04E8353B7D
:1006140093F7390091EB832604800327090093079D
:100624004900E39FE6E63E89CE84F1BFB547639671
:10063400F9001305900BD5399DB5B1471305B00AE0
:10064400E38BF9FE9947639EF902DA852D45213B38
:1006540081448D4BA149D539639674018327048065
:100664002320F9008504E39834FF832704801317BB
:100674002B01635507002312F90015B52322F90055
:1006840039BD9D476399F90281451305B004E139E9
:10069400BD442320090023220900FD597D3193F72D
:1006A4007400CA9703C70700FD14398D2380A7007F
:1006B400E39634FFEDB3A1476392F904CD39814445
:1006C400630D0B008D479304C0036308FB00930480
:1006D400000563048B01930440041375C507E3000C
:1006E40095DC194599319939054581312685AD3116
:1006F40009459D316D39E31405DAE9B391476399EE
:10070400F90013056006153115391305900925B74D
:08071400E38709D8F15469B331
:10071C00974100209381C115178100201301C18DD1
:10072C0013054000973500209385050D17360020E2
:10073C001306067E63FAC5008322050023A055002C
:10074C0011059105E3EAC5FE171500001305C5DD7B
:10075C00974500209385458A1386818063FAC500EE
:10076C008322050023A0550011059105E3EAC5FE7F
:10077C0013858180938501886377B500232005005C
:10078C001105E36DB5FE9302800873A00230973219
:10079C0000209382620693E212007390523097020B
:1007AC0000009382020173901234730020304111C7
:1007BC001305800406C697300020E780801C29288A
:1007CC001745002013054583912817450020130574
:1007DC00A5820528A92001A0371700408327870A86
:1007EC00411106C693E707202324F70A8545130514
:1007FC000010B1208D45130500209120B24041011D
:10080C0099AA411122C406C62A84B12C931505015C
:10081C0022852244B240C18141014DAA82804111FE
:10082C00014506C6952295450545A52AB240B7E770
:10083C0000E03707000823A0E710410182809147B0
:10084C0063EEB70217170000130707C98A05BA959C
:10085C009C41BA978287B717004003A7470B1345F3
:10086C00F5FF698F23AAE70A03A7070B698F23A853
:10087C00E70A03A7070A798D23A0A70A8280B71776
:10088C00004083A6470B1347F5FFF98E23AAD70A1E
:10089C0083A6070B558D23A8A70A83A6070A758F75
:1008AC0023A0E70A8280B717004003A7470B498FA4
:1008BC0023AAE70A03A7070B1345F5FF45BFB71794
:1008CC00004083A6470B1347F5FF758F23AAE70A51
:1008DC0003A7070A598D4DB7B717004003A7470B5D
:1008EC00498FEDB7B717004003D58700420541810A
:1008FC009377050491EB9377F5013755E8011305D0
:10090C0005803345F50282809377050C13070004AC
:10091C006397E7009377F50137459C1CCDB72165AC
:10092C00130505D08280411122C406C62A845D3F7E
:10093C002947B307E502B2408D83B3D7870222441F
:10094C009507B3D7E70237370040C207C183231698
:10095C00F74041018280716541111305052006C6DF
:10096C00D937B7370040130770F82381E7400D479C
:10097C00A381E74013070004A380E74005472387C2
:10098C00E740B2404101828037370040834727401F
:10099C001A0593F7F703C98F93F7F70F2301F74065
:1009AC008280B737004003C7174019C9D98DA3807F
:1009BC00B74003C70740136787002380E740828056
:1009CC0093C5F5FFF98DA380B7408280B7370040FF
:1009DC002147B736004091E1828003C6B740E30C53
:1009EC00C7FE05050346F5FFFD15C2052384C64069
:1009FC00C181D5B735713ECBA6DA36C73AC942CDDF
:100A0C0046CF973700209387A76686DEA2DC844307
:100A1C0063DB05009307B0089CC07D55F650665407
:100A2C00D6540D61828093078020231AF1002AC4CA
:100A3C002ACC814799C19387F5FF3EC83ECE7401FD
:100A4C00FD572E8426852C00231BF10036C2092A63
:100A5C00FD576355F5009307B0089CC061D0A247C1
:100A6C002380070065BFAA87850703C7F7FF6DFFC3
:100A7C003385A7407D15828001114AC803A98500E2
:100A8C0022CC52C45AC006CE26CA4EC656C22E849A
:100A9C00328B368A63ED260983D7C50013F70748D6
:100AAC0049C704408C495848AA8AB389B4408D443C
:100ABC00B384E4020947B3C4E402138716004E97CB
:100ACC0063F3E400BA8493F70740C9C3A68556853F
:100ADC00EF0090072A890DE5B14723A0FA00835750
:100AEC00C4007D5593E707042316F400F2406244DA
:100AFC00D2444249B249224A924A024B0561828051
:100B0C000C484E8645258357C40093F7F7B793E7F7
:100B1C0007082316F4002328240144C84E99B384F3
:100B2C0034412320240104C4528963732A0152895D
:100B3C0008404A86DA8515271C440145B3872741AE
:100B4C001CC41C403E99232024014DB72686568593
:100B5C00EF00700C2A8961F10C485685A127ADBFB6
:100B6C0083D7C500717126D34AD14ECF06D722D573
:100B7C0052CD56CB5AC95EC762C566C393F70708F8
:100B8C00AA892E89B284B1C39C49A1E393050004C0
:100B9C0036C65D2F2320A9002328A900B24615E1F3
:100BAC00B14723A0F9007D55BA502A549A540A59DA
:100BBC00FA496A4ADA4A4A4BBA4B2A4C9A4C4D616A
:100BCC00828093070004232AF90093070002A30CE8
:100BDC00F1029307000302DA230DF10236CE930BD8
:100BEC005002971A0000938A6A90054C294B268470
:100BFC008347040099C3639B7709B30C9440638DBE
:100C0C000C00E6862686CA854E85BD35FD576301E8
:100C1C00F51AD256E69636DA83470400638A07182B
:100C2C00FD579304140002D002D63ED202D4A30185
:100C3C00010682DC83C5040015465685B92313844E
:100C4C001400825731E513F7070109C71307000297
:100C5C00A301E10613F7870009C71307B002A3012C
:100C6C00E10683C604001307A002638BE602B257A9
:100C7C002684814625460347040093051400130778
:100C8C0007FD6374E6068DC63ED61DA005048DB720
:100C9C00330555413315AC00C98F3ED0A28459BFE2
:100CAC00724793064700184336CE634907023AD67B
:100CBC00034704009307E002631FF7040347140083
:100CCC009307A002631BF702F2470904138747003E
:100CDC009C433ACE63C107023ED235A83307E040AD
:100CEC0093E727003AD63ED0E1B7B3876703854632
:100CFC002E84BA9749B7FD57C5B7050402D2814671
:100D0C00814725460347040093051400130707FD8C
:100D1C006376E606F1F2834504000D4617050000E4
:100D2C001305457D9D2111CD970700009387877C86
:100D3C001D8D93070004B397A700025505045D8D24
:100D4C002AD0834504001946170500001305C57AFF
:100D5C0093041400230CB1020D2925C597F7FFFF4E
:100D6C009387872995E70257F2471377071009CF26
:100D7C0091073ECED257D2973EDA95BDB387670323
:100D8C0085462E84BA97BDBF9D07E19BA107D5B7B9
:100D9C00780897060000938666CE4A860C104E851E
:100DAC0097000000E7000000FD572A8AE314F5FCC9
:100DBC008357C9007D5593F70704E39707DE525517
:100DCC00E5B3780897060000938646CB4A860C104C
:100DDC004E85012AD1BF797156CA9C49BA8A984569
:100DEC0022D426D24ECE52CC06D64AD05AC85EC693
:100DFC00AA892E84B284368A63D3E700BA879CC052
:100E0C000347340419C385079CC01C4093F70702A1
:100E1C0081C79C4089079CC0032904001379690091
:100E2C00631A0900130B9401FD5B5C449840998F85
:100E3C00634CF9041C408346340493F70702B33621
:100E4C00D000A5EB13063404D2854E85829AFD574B
:100E5C006303F5041C4011469840998B544481441B
:100E6C006397C700B384E64063D3040081441C44F9
:100E7C0018486354F700998FBE94014969047D5B4F
:100E8C0063982405014509A885465A86D2854E8566
:100E9C00829A631E75017D55B250225492540259A8
:100EAC00F249624AD24A424BB24B456182800509F3
:100EBC00ADBF3307D40013060003A301C7040347D7
:100ECC00540493871600A2978906A381E7049DBF5B
:100EDC0085462286D2854E85829AE30E65FB0509EE
:100EEC0045B7797122D426D24AD04ECE06D652CCF2
:100EFC0056CA5AC8B68983C68501930790063289AB
:100F0C00AA842E8413863504638DF60263E2D70619
:100F1C00930780056387F61863EDD700638006227C
:100F2C0093073004638EF60A930A24042301D40435
:100F3C00C9A0930730066385F60A93074006E3952C
:100F4C00F6FE1C40084393F6070893054500C5C6FA
:100F5C001C410CC363D807001307D002B307F04041
:100F6C00A301E404970600009386865929476DA8CF
:100F7C00930700076383F61663E5D7029307E00631
:100F8C00638AF6189307F006E390F6FA0C401C43BC
:100F9C0013F80508138547006307080608C39C432C
:100FAC008DA893075007E383F6FE93078007638AA7
:100FBC00F61293073007E399F6F61C43D0418145AE
:100FCC009386470014C383AA070056857D2A01C562
:100FDC003305554148C05C401CC8A301040471A8EA
:100FEC001C43930A2404938647009C4314C3230197
:100FFC00F4048547D5B793F607041C410CC3B9DA42
:10100C00C207C18781BF93F5050408C3C9D983D72B
:10101C0007001307F0066387E60E97060000938619
:10102C00264E2947A30104044C400CC463C505009B
:10103C0008406D9908C099E3B28A91CDB28AB3F594
:10104C00E702FD1AB69583C505002380BA00B3D517
:10105C00E70263FFE70AA147631EF7001C40858B7C
:10106C0091CB58401C4863C7E70093070003A38F3C
:10107C00FAFEFD1A3306564110C84E87CA86700018
:10108C00A2852685893B7D5A631E450B7D55B25042
:10109C00225492540259F249624AD24A424B456157
:1010AC008280A382D50497060000938666450C4087
:1010BC00084313F805081C411105630D080208C309
:1010CC0013F7150001C793E505020CC04147B9FBA6
:1010DC000C4093F5F5FD0CC0B1B79C4193E70702AA
:1010EC009CC193078007A302F40497060000938623
:1010FC00664275BF13F8050408C3E30308FCC20776
:10110C00C1837DBF970600009386863F214719BF98
:10111C00AE8735B794411C43CC4913F806081385A8
:10112C0047006306080008C39C438CC301A808C38E
:10113C0093F606049C43F5DA2390B70023280400A9
:10114C00B28A25BF14485686CA8526858299E30F34
:10115C0045F31C40898B8DE7B2474844E359F5F2BF
:10116C003E8535B785465686CA8526858299E30F16
:10117C0065F1050A5C443247998FE345FAFEE9BFF5
:10118C00014A930A94017D5BF5B793F5F50F2A9606
:10119C006314C5000145828083470500E38DB7FECB
:1011AC000505FDB7B3C7A5008D8B3307C50081E7D7
:1011BC008D4763EEC700AA876370E50A83C60500F6
:1011CC0085078505A38FD7FEE3EAE7FE8280937639
:1011DC003500AA8791CA83C6050085078505A38FAC
:1011EC00D7FE93F63700FDB79376C7FF138606FE3E
:1011FC0063F0C70683A3050083A2450083AF850077
:10120C0003AFC50083AE050103AE450103A3850101
:10121C0083A8C5019385450223A0770003A8C5FFC9
:10122C0023A2570023A4F70123A6E70123A8D70183
:10123C0023AAC70123AC670023AE1701938747028B
:10124C0023AE07FF75B790419107910523AEC7FEFA
:10125C00E3EBD7FEE3E4E7F6828063F3A504B38601
:10126C00C500637FD5029345F6FF8147FD17639355
:10127C00F50082803387F600034807003387C700E8
:10128C002A9723000701DDB73387F5008346070053
:10129C003307F50085072300D700E317F6FE82809D
:1012AC008147E5BFCDC183A7C5FF411122C406C646
:1012BC0026C21384C5FF63D307003E94AA84F92287
:1012CC009387C1809C4399EB2322040023A6818041
:1012DC002244B24026859244410155AA637EF40013
:1012EC0014403307D4006396E7009843DC433697E9
:1012FC0018C05CC0E1BFBA87D84319C3E37DE4FED4
:10130C0094433386D700631F86001040B29694C373
:10131C003386D700E31EC7FA10435843B29694C3E2
:10132C00D8C37DB76375C400B1479CC055B7104096
:10133C00B306C4006316D70014435843B29614C0C6
:10134C0058C0C0C371B78280011126CA938435007E
:10135C00F19806CE22CC4AC84EC6A104B14763F11F
:10136C00F404B14463E0B4042A890D229387C1804C
:10137C0098433A8431E0938701819C4391E78145FE
:10138C004A85CD2023A8A180A6854A85E128FD5950
:10139C0063173507B1472320F9004A85CD2829A0CA
:1013AC00E3D204FCB1471CC10145F2406244D24473
:1013BC004249B249056182801C40858F63CE070289
:1013CC00AD4663F6F6001CC03E9404C031A05C40F0
:1013DC006312870223A6F1804A8555281305B400B1
:1013EC009307440061993307F54061D33A94898F90
:1013FC001CC065BF5CC3CDB722874040A5BF13049A
:10140C0035007198E30385FCB305A4404A859928FF
:10141C00E31D35FB41B799E1B2853DB7011122CCF3
:10142C0006CE26CA4AC84EC6328419EAA53D0149E1
:10143C00F24062444A85D2444249B24905618280F5
:10144C00AE84AA89B1202689E37485FEA2854E85D7
:10145C00E53D2A8971DDA6852286A933A6854E85B0
:10146C009135F9B7411122C42A842E8523AE018609
:10147C0006C60D28FD576317F5009387C1879C435B
:10148C0091C31CC0B2402244410182808280828080
:10149C0083A7C5FF1385C7FF63D50700AA959C4199
:1014AC003E958280938741819C4391C73E9523AAA8
:1014BC00A1803E858280938701883E9523AAA180D6
:1014CC003E8582807265706C793A20002573252EDA
:1014DC002A73000082F3FFFFAAF3FFFFD2F3FFFF92
:1014EC00EAF3FFFF04F4FFFF232D302B2000000054
:1014FC00686C4C00656667454647000030313233F6
:10150C0034353637383941424344454600000000F3
:10151C00303132333435363738396162636465665D
:04152C0000000000BB
:10153000546869732069732061207478206578612C
:101540006D0D0A0000000000000000000000000017
:10155000000000000000000000000000000000008B
:10156000000000000000000000000000000000007B
:10157000000000000000000000000000000000006B
:10158000000000000000000000000000000000005B
:10159000000000000000000000000000000000004B
:1015A00000000000000000001440002000000000C7
:00000001FF
